:020000040800F2
:100000000818002045010008D9290008DB2900084C
:10001000DF290008E3290008E729000800000000A4
:10002000000000000000000000000000EB290008B4
:10003000ED29000800000000EF290008F129000860
:100040005F0100085F0100085F0100085F01000810
:100050005F0100085F0100085F0100085F01000800
:100060005F0100085F0100085F0100085F010008F0
:100070005F0100085F0100085F0100085F010008E0
:100080005F0100085F0100085F0100085F010008D0
:100090005F0100085F0100085F0100085F010008C0
:1000A0005F0100085F0100085F0100085F010008B0
:1000B000252A00085F0100085F0100085F010008B1
:1000C0005F0100085F0100085F0100085F01000890
:1000D0005F010008F32900085F0100085F010008C4
:1000E0005F0100085F0100085F0100085F01000870
:1000F0005F0100085F0100085F0100085F01000860
:100100005F0100085F0100085F0100085F0100084F
:100110005F0100085F0100085F0100085F0100083F
:100120005F0100085F0100085F0100085F0100082F
:10013000DFF80CD006F046FC0048004739290008DB
:10014000081800200648804706480047FEE7FEE7FB
:10015000FEE7FEE7FEE7FEE7FEE7FEE7FEE7FEE777
:1001600047020008310100080CB500200190009002
:100170006C48006840F480306A49086000BF6948F4
:10018000006800F4003000900198401C0190009835
:1001900018B90198B0F5A06FF1D16248006800F479
:1001A000003010B10120009001E000200090009884
:1001B000012843D15C48006840F010005A490860AB
:1001C0000846006820F0030008600846006840F018
:1001D0000200086053484068524948600846406839
:1001E00048600846406840F48060486008464068BF
:1001F00020F47C1048600846406840F4E8104860ED
:100200000846006840F08070086000BF45480068FC
:1002100000F000700028F9D04248406820F0030048
:10022000404948600846406840F00200486000BF0E
:100230003C48406800F00C000828F9D10CBD10B50E
:10024000FFF792FF10BD10B53648006840F001007E
:1002500034490860084640683449084031494860DC
:1002600008460068324908402E4908600846006880
:1002700020F4802008600846406820F4FE004860B2
:100280004FF41F008860FFF7DAFF4FF00060294944
:10029000086010BD10B5002100200022214B5B68D2
:1002A00003F00C0121B1042906D0082928D107E068
:1002B000214B224C236027E01F4B204C236023E07E
:1002C000184B5B6803F47010164B5B6803F48032C4
:1002D000022303EB904022B9194B4343174C236090
:1002E0000DE0104B5B6803F4003323B1144B434320
:1002F000124C236003E0104B4343104C236003E097
:100300000D4B0E4C236000BF00BF064B5B68C3F370
:1003100003130C4CE15C094B1B68CB40074C23607A
:1003200010BD000000100240002002400000FFF855
:10033000FFFFF6FE08ED00E000127A00000000204A
:1003400000093D000400002031490143314A116099
:10035000704770B5002100230F22C47804B32D4CE0
:10036000246804F4E064C4F5E064210AC1F10403E4
:10037000CA40447804FA03F1847814402143090107
:10038000254C0678A155047804F01F050124AC40E3
:1003900005786D11AD0005F1E025C5F8004109E0D3
:1003A000047804F01F050124AC401C4D067876113A
:1003B00045F8264070BD1A4A0A400243154B1B1FE0
:1003C0001A60704739B1134A121D12680243114B6B
:1003D0001B1D1A6006E00F4A121D126882430D4B66
:1003E0001B1D1A607047042808D14FF0E0210969ED
:1003F00041F004014FF0E022116107E04FF0E021ED
:10040000096921F004014FF0E022116170470000FA
:100410000000FA050CED00E000E400E080E100E0FF
:1004200080FFFF1F01460020FE4A106800F03800E0
:10043000084310607047FB49096821F00801F94A38
:10044000116011460968014311607047F549096858
:1004500021F01001F34A116011460968014311604F
:100460007047F148EF494860F04848607047EE48EF
:10047000EC494860ED4848607047EA48006940F040
:100480008000E84908617047E648006940F0800054
:10049000E449086170470420E249C96801F001019C
:1004A00009B101200EE0DF49C96801F0040109B17A
:1004B000022007E0DB49C96801F0100109B10320FF
:1004C00000E00420704700B502460423FFF7E3FF75
:1004D000034603E0FFF7DFFF0346521E012B01D165
:1004E000002AF7D102B90523184600BD30B50446ED
:1004F00004254FF43020FFF7E6FF0546042D17D101
:10050000C848006940F00200C649086108464461D5
:10051000006940F0400008614FF43020FFF7D3FF3E
:100520000546C048006941F6FD710840BD490861B3
:10053000284630BD10B504244FF43020FFF7C3FF28
:100540000446042C16D1B748006940F00400B549B0
:1005500008610846006940F0400008614FF430200F
:10056000FFF7B1FF0446AF48006941F6FB71084050
:10057000AC490861204610BD00B502460423FFF7D0
:100580008AFF034603E0FFF786FF0346521E012B56
:1005900001D1002AF7D102B90523184600BD10B5D4
:1005A00004244FF43020FFF7E7FF0446042C16D153
:1005B0009C48006940F004009A49086108460069B7
:1005C00040F0400008614FF43020FFF7D5FF0446AB
:1005D0009448006941F6FB71084092490861204641
:1005E00010BD00208F49C96901F0020109B1012045
:1005F00000E00020704730B5A5250424FFF7F1FF87
:1006000000B100254FF43020FFF75DFF0446042CB5
:100610003AD18548834988608448886008460069E3
:1006200040F0200008610846006940F04000086181
:100630004FF43020FFF747FF0446042C1BD17948C4
:10064000006941F6DF710840764908610846006993
:1006500040F01000086176480580E002FFF733FFA4
:100660000446052C10D06F48006941F6EF71084030
:100670006C49086108E0052C06D06A48006941F61B
:10068000EF71084067490861204630BD78B50646DD
:100690000C46042500200090E802FFF714FF0546F1
:1006A000042D24D15F48006940F001005D490861D4
:1006B0003480E802FFF707FF0546042D10D1B01C77
:1006C0000090200C00990880E802FFF7FCFE054628
:1006D0005448006941F6FE7108405249086106E03D
:1006E0005048006941F6FE7108404E4908612846AD
:1006F00078BD70B504460D460426F002FFF7E3FE10
:100700000646042E11D14748006940F001004549D2
:1007100008612580F002FFF7D6FE064641480069D1
:1007200041F6FE7108403F490861304670BD70B522
:1007300005460E460424E002FFF7C5FE0446042CDD
:1007400017D13948374988603848886008460069B9
:1007500040F0100008612E80E002FFF7B4FE04466E
:10076000052C06D02F48006941F6EF7108402D494D
:100770000861204670BD2DE9F04304464FF6FF7630
:100780003746B046B1460425E443E6B2C4F3072732
:10079000C4F307484FEA1469E802FFF794FE0546E0
:1007A000042D49D120481F498860204888600846A8
:1007B000006940F010000861FF2E06D01C48083088
:1007C0000680E802FFF77FFE0546042D08D1FF2FC3
:1007D00006D017480A300780E802FFF774FE054686
:1007E000042D0AD1B8F1FF0F07D011480C30A0F842
:1007F0000080E802FFF767FE0546042D0AD1B9F133
:10080000FF0F07D00A480E30A0F80090E802FFF76B
:100810005AFE0546052D0FD00248006941F6EF71DA
:10082000084007E00020024023016745AB89EFCD77
:1008300000F8FF1F664908612846BDE8F08330B51F
:10084000054604244FF43020FFF73DFE0446042CF7
:1008500041D160485E4988605F4888600846006909
:1008600040F0200008610846006940F0400008613F
:100870004FF43020FFF727FE0446042C22D15448C1
:10088000006941F6DF710840514908610846006976
:1008900040F0100008611DB100205049088002E0BE
:1008A000A5204E4908804FF43020FFF70CFE044687
:1008B000052C10D04648006941F6EF7108404449C4
:1008C000086108E0052C06D04148006941F6DF7157
:1008D00008403F490861204630BDF0B505460E4648
:1008E000174604243B483A4988603B488860E00248
:1008F000FFF7E9FD0446042C19D13548006940F0A2
:1009000010003349086147F0F80030432843334969
:10091000891C0880E002FFF7D6FD0446052C06D0AE
:100920002B48006941F6EF710840294908612046CB
:10093000F0BD2748C069800870472548006A7047A5
:1009400000202349096801F0200109B1012000E0DD
:100950000020704729B11E4A126902431C4B1A61DC
:1009600004E01B4A12698243194B1A617047014621
:100970000020012908D1164AD26902F001020AB109
:10098000012008E0002006E0114AD2680A400AB1BE
:10099000012000E0002070470D49C8607047042026
:1009A0000B49C96801F0010109B101200EE00849B5
:1009B000C96801F0040109B1022007E00449C968CF
:1009C00001F0100109B1032000E00420704700008D
:1009D0000020024023016745AB89EFCD00F8FF1FDF
:1009E00010B50446CC48844208D10121042000F00F
:1009F0002DFB0021042000F029FB46E0C74884427B
:100A000008D10121082000F021FB0021082000F07E
:100A10001DFB3AE0C248844208D10121102000F0B9
:100A200015FB0021102000F011FB2EE0BD48844290
:100A300008D10121202000F009FB0021202000F036
:100A400005FB22E0B848844208D10121402000F093
:100A5000FDFA0021402000F0F9FA16E0B348844284
:100A600008D10121802000F0F1FA0021802000F05F
:100A7000EDFA0AE0AE48844207D10121801500F06A
:100A8000E5FA0021A01500F0E1FA10BD10B5012132
:100A9000084600F0DBFA0021012000F0D7FA10BD73
:100AA0002DE9F04102460025002600200023002405
:100AB000002791F803C00CF00F0591F803C00CF06B
:100AC000100CBCF1000F03D091F802C04CEA0505F0
:100AD00091F800C0BCF1000F31D0146800202BE069
:100AE0004FF0010C0CFA00F3B1F800C00CEA030659
:100AF0009E4220D183004FF00F0C0CFA03F7BC4349
:100B000005FA03FC4CEA040491F803C0BCF1280F79
:100B100006D14FF0010C0CFA00FCC2F814C00AE038
:100B200091F803C0BCF1480F05D14FF0010C0CFA4D
:100B300000FCC2F810C0401C0828D1D31460B1F8E2
:100B400000C0BCF1FF0F34DD546800202EE000F13E
:100B5000080C4FF0010808FA0CF3B1F800C00CEAD9
:100B600003069E4221D183004FF00F0C0CFA03F7CD
:100B7000BC4305FA03FC4CEA040491F803C0BCF141
:100B8000280F05D100F1080C08FA0CF8C2F81480FF
:100B900091F803C0BCF1480F07D100F1080C4FF0E9
:100BA000010808FA0CF8C2F81080401C0828CED3BF
:100BB0005460BDE8F0814FF6FF7101800221817021
:100BC0000421C17070470246002093680B400BB1AE
:100BD000012000E0002070470146886880B270471D
:100BE00002460020D3680B400BB1012000E000203A
:100BF00070470146C86880B2704701617047416123
:100C000070470AB1016100E041617047C1607047FF
:100C10004FF480320A438261816182618269826914
:100C2000704702460020434B18684FF68073184007
:100C300040EA021008433F4B186070473E49C861C4
:100C40007047F0B50A46002300240021002500F07B
:100C50000046B6F1004F02D1364EF16901E0354E43
:100C60007168C0F3034583B200F44016B6F5401F27
:100C700008D121F070612F4E766826F070662D4FF6
:100C80007E6012E000F48016B6F5801F06D10326C0
:100C900006FA05F4A14341F0706106E0460D360105
:100CA00003FA06F6B14341F0706122B1460D3601F8
:100CB00003FA06F6314300F00046B6F1004F02D1C8
:100CC0001C4EF16101E01B4E7160F0BD30B5002299
:100CD0008B071C0F0F2303FA04F2164B08338C10FA
:100CE00053F824309343134C08348D1044F82530C6
:100CF00023468C1053F824308C07240F00FA04F498
:100D000023430C4C08348D1044F8253030BD0A497B
:100D1000DC3108607047000000080140000C014011
:100D2000001001400014014000180140001C014067
:100D3000002001400000014000002042DF48006820
:100D400040F00100DD49086008464068DC49084081
:100D5000DA49486008460068DA490840D74908601F
:100D60000846006820F4802008600846406820F4A7
:100D7000FE0048604FF41F0088607047CF49096843
:100D800021F48031CD4A11601146096821F4802197
:100D90001160B0F5803F03D0B0F5802F0ED106E092
:100DA000C649096841F48031C44A116007E0C3496B
:100DB000096841F4A021C14A116000E000BF00BFF2
:100DC000704710B501460022002300204A11012A75
:100DD00002D1BA4C236806E0022A02D1B74C236A3A
:100DE00001E0B64C636A01F01F02012494401C40EC
:100DF0000CB1012000E0002010BD38B500200090AB
:100E00000024002500BF3120FFF7DBFF05460098D6
:100E1000401C00900098B0F5A06F01D0002DF2D0DA
:100E20003120FFF7CEFF08B1012400E00024204666
:100E300038BD01460020A14A106820F0F80040EAC1
:100E4000C10010607047A04908607047024600204A
:100E50009A4B586820F47C1042EA01031843974BE0
:100E60005860704798490866704701460020934AC9
:100E7000506820F003000843506070478F48406876
:100E800000F00C007047014600208C4A506820F0AA
:100E9000F00008435060704701460020874A5068C0
:100EA00020F4E06008435060704701460020834A08
:100EB000506820F4605040EAC1005060704729B18A
:100EC0007E4A527A02437D4B5A7204E07B4A527A40
:100ED00082437A4B5A7270477B49D8310860704719
:100EE00001460020754A506820F440400843506095
:100EF00070470021714A20321170704A82F8201028
:100F0000012802D004280AD104E001216B4A2032D2
:100F1000117005E00521694A2032117000E000BF20
:100F200000BF70476949086070476449096A014316
:100F3000624A11627047654944390860704730B5AC
:100F400000210022002400235C4D6D6805F00C0197
:100F500021B1042905D0082923D105E05C4D0560A5
:100F600022E05B4D05601FE0544D6D6805F4701282
:100F7000524D6D6805F48034022505EB92421CB990
:100F8000544D554305600BE04C4D6D6805F400353C
:100F90001DB1504D5543056002E04D4D5543056070
:100FA00002E04B4D056000BF00BF444D6D6805F089
:100FB000F0010909484D6B5C0568DD4045603F4D17
:100FC0006D6805F4E061090A434D6B5C4568DD40DE
:100FD00085603A4D6D6805F46051C90A3E4D6B5C01
:100FE0004568DD40C560354D6D6805F44041890BAD
:100FF0003A4D6B5CC568B5FBF3F5056130BD29B1B1
:101000002E4A526902432D4B5A6104E02B4A526921
:1010100082432A4B5A61704729B1284A9269024398
:10102000264B9A6104E0254A92698243234B9A61D8
:10103000704729B1214AD2690243204BDA6104E0AA
:101040001E4AD26982431D4BDA61704729B11B4A9F
:10105000D2680243194BDA6004E0184AD26882432E
:10106000164BDA60704729B1144A12690243134BD8
:101070001A6104E0114A12698243104B1A617047E9
:1010800012494039086070470F49C86470470B49DE
:10109000C87170470948406A40F08070074948624B
:1010A000704701460020054A92680A400AB10120B3
:1010B00000E000207047014988727047001002402C
:1010C0000000FFF8FFFFF6FE0000424280044242AB
:1010D00000127A0000093D001400002024000020C6
:1010E00010B50446FE48844208D10121C014FFF720
:1010F000ADFF0021E014FFF7A9FFC4E0B4F1804F79
:1011000008D101210846FFF7AEFF00210120FFF7BB
:10111000AAFFB8E0F348844208D101210220FFF77A
:10112000A2FF00210220FFF79EFFACE0EE488442C0
:1011300008D101210420FFF796FF00210420FFF7CA
:1011400092FFA0E0E948844208D101210820FFF77E
:101150008AFF00210820FFF786FF94E0E4488442DC
:1011600008D101211020FFF77EFF00211020FFF79A
:101170007AFF88E0DF48844208D101212020FFF770
:1011800072FF00212020FFF76EFF7CE0DA488442E6
:1011900008D101214014FFF759FF00216014FFF727
:1011A00055FF70E0D548844209D10121C804FFF7FA
:1011B0004DFF00214FF40020FFF748FF63E0D048C7
:1011C000844209D101210805FFF740FF00214FF4B7
:1011D0008010FFF73BFF56E0CA48844209D1012145
:1011E0004805FFF733FF00214FF40010FFF72EFFF3
:1011F00049E0C548844208D101214020FFF733FF70
:1012000000214020FFF72FFF3DE0C048844208D175
:1012100001218020FFF727FF00218020FFF723FF17
:1012200031E0BB48844208D101218015FFF71BFF44
:101230000021A015FFF717FF25E0B648844209D129
:1012400001210804FFF702FF00214FF48030FFF76F
:10125000FDFE18E0B048844209D101214804FFF79F
:10126000F5FE00214FF40030FFF7F0FE0BE0AB4835
:10127000844208D101218804FFF7E8FE00214FF4E1
:101280008020FFF7E3FE10BD00220288944B9842B5
:101290000ED0994B98420BD0B0F1804F08D0914BB3
:1012A000984205D0904B984202D0904B984204D17E
:1012B0004FF68F731A404B881A438D4B984207D0D4
:1012C0008C4B984204D04FF6FF431A40CB881A4308
:1012D00002808B8883850B880385814B98420BD0D5
:1012E000854B984208D08B4B984205D08A4B984248
:1012F00002D08A4B984201D10B7A03860123838264
:10130000704770B5002400220023058C4FF6FE764E
:1013100035400584028C8388048B4FF68F752C40F2
:10132000B51E2C400D882C43751E2A400D892A437A
:101330004D882A436A4DA8420BD06F4DA84208D071
:10134000744DA84205D0744DA84202D0734DA842F6
:1013500013D14FF6F7752A404D892A434FF6FB7596
:101360002A408D882A434FF6FF652B404FF6FF55E4
:101370002B408D892B43CD892B4383800483CD88DB
:101380008586028470BD70B5002400220023058C80
:101390004FF6EF7635400584028C8388048B48F63F
:1013A000FF752C404FF6FF452C400D884FF6FF7619
:1013B00006EA05252C434FF6DF752A400D8906EA1B
:1013C00005152A434D8806EA05152A43444DA842CF
:1013D00002D0494DA8421DD14FF67F752A404D8954
:1013E0004FF6FF7606EA05152A434FF6BF752A40E9
:1013F0008D8806EA05152A434FF6FF352B404FF23C
:10140000FF752B408D8906EA85052B43CD8906EAB9
:1014100085052B4383800483CD880587028470BDB6
:1014200070B5002400220023058C4FF6FF6635407E
:101430000584028C8388848B4FF68F752C404FF681
:10144000FC752C400D882C434FF6FF552A400D8922
:101450004FF6FF7606EA05252A434D8806EA05255C
:101460002A431F4DA84202D0234DA8421DD14FF25E
:10147000FF752A404D894FF6FF7606EA05252A4377
:101480004FF6FF352A408D8806EA05252A434EF699
:10149000FF752B404DF6FF752B408D8906EA05152B
:1014A0002B43CD8906EA05152B4383808483CD88A1
:1014B0008587028470BD70B5002200230024058C4E
:1014C0004EF6FF7635400584038C8488828B48F67F
:1014D000FF752A404FF6FF452A400D8820E00000A6
:1014E000002C01400004004000080040000C0040B7
:1014F000001000400014004000340140004C014046
:10150000005001400054014000180040001C004001
:1015100000200040004001400044014000480140DC
:101520004FF6FF7606EA05252A434DF6FF752B4058
:101530000D8906EA05352B434D8806EA05352B4310
:10154000FA4DA84202D0FA4DA84208D14BF6FF75D9
:101550002C408D894FF6FF7606EA85152C43848052
:101560008283CD88A0F84050038470BD828B4FF2F7
:10157000FF331A408283828B4FF6FF7303EA012305
:101580001A4382837047F0B50C46154600220021AD
:101590000026078C4EF6FF7C07EA0C070784828B37
:1015A000018C4FF6FF7707EA043640F6FF473A40D2
:1015B0004FF6FF7707EA05273A434FF6FF7707EA2A
:1015C00003373A43D94FB8420ED0D94FB8420BD067
:1015D000B0F1804F08D0D74FB84205D0D64FB842AF
:1015E00002D0D64FB84206D14DF6FF77394046F4C7
:1015F0008057394305E047F6FF57394044F4805798
:10160000394382830184F0BD828B4FF6F3731A4015
:101610008283828B0A4382837047F0B50C4615465D
:10162000002200210026078C4FF6FF6C07EA0C070A
:101630000784828B018C4FF6FF7707EA04264FF66A
:101640000C773A404FF6FF7707EA03172F433A43E8
:10165000B64FB8420ED0B64FB8420BD0B0F1804F63
:1016600008D0B44FB84205D0B34FB84202D0B34F00
:10167000B84206D14FF6FF57394046F480773943D8
:1016800005E04FF2FF57394044F4807739438283B5
:101690000184F0BD028B4FF2FF331A400283028BAC
:1016A0004FF6FF7303EA01231A4302837047F0B534
:1016B0000C461546002200210026078C4FF6EF7CD1
:1016C00007EA0C070784028B018C4FF6FF7707EAC5
:1016D000041640F6FF473A404FF6FF7707EA033714
:1016E0003A434FF6FF7707EA05273A438F4FB84250
:1016F0000ED08F4FB8420BD0B0F1804F08D08D4F35
:10170000B84205D08C4FB84202D08C4FB84206D1B7
:101710004FF6DF77394046F01007394305E04FF6C2
:101720005F77394044F01007394302830184F0BDEC
:10173000028B4FF6F3731A400283028B0A43028333
:101740007047F0B50C46154600220021068C4FF676
:10175000FE773E400684028B018C4FF60C763240B9
:101760007E1C06EA03162E433243704EB0420ED062
:101770006F4EB0420BD0B0F1804F08D06D4EB042EA
:1017800005D06D4EB04202D06C4EB04206D14FF63D
:10179000FD76314044F00106314305E04FF6F57621
:1017A000314044F00106314302830184F0BD70B53D
:1017B00005460C465D4885420ED05D4885420BD0FB
:1017C000B5F1804F08D05B48854205D05A48854224
:1017D00002D05A48854200D100E000BF208850B9AD
:1017E0002389A28861882846FFF7ABFFE188284655
:1017F000FFF79EFF25E0208804280AD12389A288CC
:1018000061882846FFF753FFE1882846FFF742FF2B
:1018100017E0208808280AD12389A28861882846F1
:10182000FFF7FBFEE1882846FFF7EEFE09E023897B
:10183000A28861882846FFF7A6FEE1882846FFF7C0
:1018400095FE70BD2DE9F04105460C4600260127A6
:10185000608808B9022600E00026A088012801D18E
:10186000022700E001272088A0B92389A288618887
:101870002846FFF766FFE1882846FFF759FF2389CE
:101880003A4631462846FFF712FFE1882846FFF71F
:1018900001FF13E02389A28861882846FFF707FF2C
:1018A000E1882846FFF7F6FE23893A463146284666
:1018B000FFF747FFE1882846FFF73AFFBDE8F081D0
:1018C0000A884B881A438B881A43CB881A430B89A2
:1018D0001A434B891A438B891A43A0F84420704756
:1018E0004FF6FF71818000210180C180418001722B
:1018F00070470021018041808180C1800181418148
:101900008181C18170470021018041800121818056
:101910000021C180018170470021018041808180C8
:10192000C18001814181818170470000002C01400C
:10193000003401400004004000080040000C00405A
:1019400021B1028842F00102028004E002884FF6D1
:10195000FE731A400280704731B1B0F8442042F45F
:101960000042A0F8442005E0B0F84420C2F30E0283
:10197000A0F8442070471AB183890B43838102E0A9
:1019800083898B43838170478182704741EA0203D8
:10199000A0F8483070471AB183890B43838102E075
:1019A00083898B438381704701894FF6F872114018
:1019B000018170470A46002101894FF68F73194053
:1019C00011430181704730B504460D462946204633
:1019D000FFF7F0FF208940F00700208130BD2DE99E
:1019E000F04104460D4616461F46602D06D13B4683
:1019F000012231462046FFF75AFE05E03B46012210
:101A000031462046FFF79DFE29462046FFF7D2FFCC
:101A1000208940F007002081BDE8F08130B50C46F8
:101A200000210189C9B24FF6FF7505EA0325154368
:101A300025432943018130BD2DE9F04105460E467D
:101A400017469846002443463A4631462846FFF753
:101A5000E5FF2C894FF6F870044044F007044FF678
:101A60008F70044044F070042C81BDE8F081F0B523
:101A700004460D4616461F463B463246294620463A
:101A8000FFF7CCFF208940F480402081F0BD018524
:101A9000828270470A46002101884FF68F731940F1
:101AA000114301807047F0B50C4615461E460021D3
:101AB000002200230189028B038C4FF6F87739400E
:101AC00021434FF6FC473A4040F201173A434FF6A4
:101AD000DD773B404FF6FF7707EA06172F433B437E
:101AE000018102830384F0BD0A460021018B4FF679
:101AF0008F7319401143018370470A460021018BFF
:101B000048F6FF7319404FF6FF7303EA02231943A7
:101B1000018370470A460021818B4FF68F7319406D
:101B20001143818370470A460021818B48F6FF7379
:101B300019404FF6FF7303EA02231943818370476C
:101B400021B1028842F08002028004E002884FF650
:101B50007F731A400280704721B1828842F00402EC
:101B6000828004E082884FF6FB731A4082807047BF
:101B700021B1828842F00802828004E082884FF618
:101B8000F7731A408280704721B1828842F00102C7
:101B9000828004E082884FF6FE731A40828070478C
:101BA0000A460021018B4FF6F77319401143018358
:101BB00070470A460021018B4FF2FF7319404FF620
:101BC000FF7303EA02231943018370470A46002189
:101BD000818B4FF6F77319401143818370470A4692
:101BE0000021818B4FF2FF7319404FF6FF7303EA18
:101BF00002231943818370470A460021018B4FF667
:101C0000FB7319401143018370470A460021018B81
:101C10004FF6FF3319404FF6FF7303EA02231943CF
:101C2000018370470A460021818B4FF6FB731940F0
:101C30001143818370470A460021818B4FF6FF33A1
:101C400019404FF6FF7303EA02231943818370475B
:101C50000A460021018B4FF67F731940114301831F
:101C600070470A460021018BC1F30E014FF6FF7346
:101C700003EA02231943018370470A460021818B3E
:101C80004FF67F7319401143818370470A46002144
:101C9000818BC1F30E014FF6FF7303EA0223194350
:101CA000818370470A460021018C4FF6FD7319406D
:101CB0001143018470470A460021018C4FF6F773E7
:101CC00019401143018470470A460021018C4FF6E8
:101CD000DF7319404FF6FF7303EA021319430184BF
:101CE00070470A460021018C4FF67F7319404FF66A
:101CF000FF7303EA02131943018470470A46002167
:101D0000018C4FF6FF5319404FF6FF7303EA02238D
:101D10001943018470470A460021018C4FF2FF737A
:101D200019404FF6FF7303EA0223194301847047F9
:101D30000A460021018C4DF6FF7319404FF6FF73E0
:101D400003EA023319430184704730B500230124AC
:101D50008C40A3B2048C9C430484048C02FA01F5E9
:101D6000ADB22C43048430BD30B5002304248C4034
:101D7000A3B2048C9C430484048C02FA01F5ADB236
:101D80002C43048430BD70B503460020002418465F
:101D9000183001258D40ACB21D8CA5431D8409B1BE
:101DA000082909D100EB6100056825F07005056080
:101DB0000568154305600EE00D1FC5F34E05284468
:101DC000056825F4E045056005684FF6FF7606EAEC
:101DD00002263543056070BD21B1028842F002023F
:101DE000028004E002884FF6FD731A4002807047BB
:101DF00021B1028842F00402028004E002884FF61A
:101E0000FB731A400280704721B1828842F0800241
:101E1000828004E082884FF67F731A408280704788
:101E200002884FF6F7731A40028002880A43028044
:101E3000704782884FF68F731A40828082880A43E7
:101E40008280704702894FF6F8731A400281028936
:101E50000A430281704702894FF67F731A4002815C
:101E600002890A43028170478184704781857047E7
:101E7000818670470187704781877047A0F84010BE
:101E8000704702884FF6FF431A40028002880A43D7
:101E9000028070470146888E70470146088F704760
:101EA0000146888F70470146B1F8400070470146EF
:101EB000888C70470146088D704702460020138ABF
:101EC0000B400BB1012000E000207047CA430282A2
:101ED000704730B50246002000230024158A05EA29
:101EE0000103958905EA010413B10CB1012000E05A
:101EF000002030BDCA4302827047000010B504467E
:101F0000FB48844209D101218803FFF79FF8002193
:101F10004FF48040FFF79AF832E0F648844209D146
:101F200001214804FFF79FF800214FF40030FFF72C
:101F30009AF825E0F048844209D101218804FFF78E
:101F400092F800214FF48020FFF78DF818E0EB485D
:101F5000844209D10121C804FFF785F800214FF41C
:101F60000020FFF780F80BE0E548844208D101210A
:101F70000805FFF778F800214FF48010FFF773F899
:101F800010BD2DE9F04786B005460E460024A24656
:101F900000BFA1460027B08900B100BF2F462C8AA0
:101FA0004CF6FF700440F08804432C82AC894EF656
:101FB000F3100440B0883189084371890843044311
:101FC000AC81AC8A4FF6FF400440B0890443AC8238
:101FD00001A8FEF7B4FFC648874202D1DDF810A081
:101FE00001E0DDF80CA0A88900F4004040B10AEB44
:101FF000CA0000EB0A1031684900B0FBF1F807E0B5
:102000000AEBCA0000EB0A1031688900B0FBF1F856
:102010006420B8FBF0F004012009642101FB108961
:10202000A88900F4004040B1322000EBC900B0FBA9
:10203000F1F000F00700044308E0322000EB091043
:102040006421B0FBF1F000F00F0004432C8106B0D6
:10205000BDE8F0874FF41651016000218180C180F6
:1020600001810C21418100218181704710B5024618
:102070000020108A4FF2FF0318400B884C8823433E
:102080008C882343CC8823431843108210BD002141
:10209000018041808180C180704721B1828942F4F2
:1020A0000052828104E082894DF6FF731A408281DA
:1020B0007047F0B50346002400260025002040F6B6
:1020C0006A17B94200D100BF1846C1F3421401F0AB
:1020D0001F06012707FA06F5012C01D10C3004E098
:1020E000022C01D1103000E014301AB107682F43E0
:1020F000076002E00768AF430760F0BD1AB1838A4A
:102100000B43838202E0838A8B4383827047028A77
:102110004FF6F0731A400282028A0A430282704725
:1021200082894FF2FF731A40828182890A43828139
:10213000704721B1828942F00202828104E08289E3
:102140004FF6FD731A4082817047028A4FF6DF73A3
:102150001A400282028A0A430282704721B1028A2F
:1021600042F48042028204E0028A4BF6FF731A4076
:1021700002827047C1F30802828070470146888856
:10218000C0F308007047818941F0010181817047E7
:10219000028BD2B20283028B42EA01220283704791
:1021A000028B02F47F420283028B0A430283704750
:1021B00021B1828A42F02002828204E0828A4FF6B4
:1021C000DF731A408282704721B1828A42F0100286
:1021D000828204E0828A4FF6EF731A40828270474F
:1021E00021B1828A42F00802828204E0828A4FF69C
:1021F000F7731A408282704721B1828942F400420B
:10220000828103E08289C2F30E028281704721B18C
:10221000828A42F40062828204E0828A4FF2FF7373
:102220001A4082827047828A4FF6FB731A4082827C
:10223000828A0A438282704721B1828A42F0020276
:10224000828204E0828A4FF6FD731A4082827047D0
:1022500002460020B1F5007F00D100BF13880B407B
:102260000BB1012000E00020704701F40072B2F5CC
:10227000007F00D100BFCA430280704770B502469C
:10228000002400230025002040F66A16B14200D148
:1022900000BFC1F3421501F01F03012606FA03F344
:1022A000012D02D19689334006E0022D02D1168A13
:1022B000334001E0968A33400C12012606FA04F4FA
:1022C0001688344013B10CB1012000E0002070BD2D
:1022D00010B50022002340F66A14A14200D100BFCD
:1022E0000A1201249440A3B2DC43048010BD000014
:1022F000003801400044004000480040004C0040CD
:102300000050004030B943F2DB028100A1F1C0412E
:102310000A6005E043F2D2028100A1F1C0410A60E7
:102320006FF07042411C8900A1F1C0410A60810038
:10233000A1F1C041C1F80421704710280AD1182129
:102340004FF020421166402151664FF0FC319166FA
:10235000D16610E01821F74A116040214FF0204269
:10236000C2F884104FF0FC31F24A083211604FF08D
:102370002042C2F88C1070471820EE4920310860C6
:1023800000200906C1F8A4004FF0FC30E9492831CB
:102390000860091D0860091D08607047D0E9011236
:1023A0001143C268114302691143426911438269B2
:1023B0001143C2691143026A1143426A1143826A9E
:1023C0001143C26A1143026B114302689200A2F1E9
:1023D000C0421160816808290BD101688900A1F110
:1023E000C041096841F0400201688900A1F1C04183
:1023F0000A60416B0968426B526841EA0211426B04
:10240000926841EA0221426B928941EA0241426BA1
:10241000128A41EA0251426B127D41EA0261426B2B
:10242000926911430268521C9200A2F1C0421160ED
:10243000C16AB1F5804F1BD1816B0968826B52680C
:1024400041EA0211826B926841EA0221826B128A90
:1024500041EA0251826B127D41EA0261826B92690C
:10246000114302689200A2F1C042C2F8041107E0D1
:102470006FF0704201688900A1F1C041C1F80421E8
:10248000704730B5002100220023446844F008045E
:1024900085682C43C5682C4305692C43456944EA8B
:1024A0004524856944EA4531C4692468C5696D6875
:1024B00044EA0524C5692D8944EA0544C5692D7B94
:1024C00044EA0562046A2468056A6D6844EA0524E2
:1024D000056A2D8944EA0544056A2D7B44EA0563B3
:1024E0000468102C05D14FF020442166A266E366F3
:1024F00008E0904C21604FF02044C4F888208D4CB7
:102500000C34236030BD016841F01001426841EA9B
:102510004221826841EA4231864A20321160C16814
:102520000968C268526841EA0221C268128941EA18
:102530000241C268127B41EA02617E4A2832116080
:10254000016909680269526841EA02210269128937
:1025500041EA02410269127B41EA0261754A2C326A
:102560001160416909684269526841EA0221426981
:10257000128941EA02414269127B41EA02614FF04D
:102580002042C2F8B0107047002101600221416072
:1025900000218160C160016141618161C1610162AD
:1025A0004FF480514162490081620021C1620163A0
:1025B0000F21426B1160426B5160FF21426B9160B1
:1025C0000F21426BD160426B1161426B516100215E
:1025D000426B91610F21826B1160826B5160FF2110
:1025E000826B91600F21826BD160826B1161826B73
:1025F00051610021826B91617047102101600021BF
:1026000041608160C160016141618161FC21C269F9
:102610001160C2695160C2699160C269D160026A89
:102620001160026A5160026A9160026AD16070476B
:102630000021016041608160FC21C2681160C268B4
:102640005160C2689160C268D1600269116002691C
:102650005160026991600269D1604269116042690A
:102660005160426991604269D160704751B1820006
:10267000A2F1C042126842F001038200A2F1C042FE
:10268000136009E08200A2F1C04212682A4B1A408E
:102690008300A3F1C0431A60704799B1102808D194
:1026A0004FF02042126E42F004024FF020431A66AF
:1026B0001DE0204A126842F004024FF02043C3F8A4
:1026C000802014E0102809D14FF02042126E1A4BDE
:1026D000DB1E1A404FF020431A6608E0154A1268C4
:1026E000154BDB1E1A404FF02043C3F88020704783
:1026F00048B110492031096841F004014FF02042EF
:10270000C2F8A01009E00B49203109680A4AD21E1C
:1027100011404FF02042C2F8A0107047B9B1102804
:102720000CD14FF02042126E42F040024FF0204395
:102730001A661FE0800000A0FEFF0F00724A1268B8
:1027400042F040024FF02043C3F8802012E01028EE
:1027500008D14FF02042126E6C4B1A404FF02043CC
:102760001A6607E0684A1268684B1A404FF0204327
:10277000C3F88020704701460020102903D14FF094
:102780002042506F02E0604A14321068704710B562
:10279000F2B1102807D14FF020435B6E0B434FF08E
:1027A0002044636632E0B0F5807F08D1564B1B1D94
:1027B0001B680B434FF02044C4F8843026E0524B92
:1027C00024331B680B434FF02044C4F8A4301DE0B1
:1027D000102807D14FF020435B6E8B434FF020440D
:1027E000636613E0B0F5807F08D1474B1B1D1B6863
:1027F0008B434FF02044C4F8843007E0424B24332D
:102800001B688B434FF02044C4F8A43010BD10B5B2
:10281000024600200023102A03D14FF02044636EAB
:1028200009E0B2F5807F03D1374C241D236802E014
:10283000354C2434236803EA01040CB1012000E084
:10284000002010BD102807D14FF02042526E8A435D
:102850004FF020435A6613E0B0F5807F08D12A4A32
:10286000121D12688A434FF02043C3F8842007E00A
:10287000254A243212688A434FF02043C3F8A4202B
:10288000704770B502460020002300240025102A5E
:1028900003D14FF02046736E09E0B2F5807F03D17B
:1028A000194E361D336802E0174E2436336803EAAA
:1028B000010403EAD10514B10DB1012000E00020AC
:1028C00070BD102808D14FF02042526E22EAD1028A
:1028D0004FF020435A6615E0B0F5807F09D10A4ACF
:1028E000121D126822EAD1024FF02043C3F884205F
:1028F00008E0054A2432126822EAD1024FF0204350
:10290000C3F8A42070470000800000A0BFFF0F00A4
:1029100008B501210820FEF77FFB4FF48170ADF868
:10292000000048208DF8030003208DF8020069465E
:102930002448FEF7B5F808BD482002F069F800F019
:1029400085F801F04CFFFFF7E3FF01F047FE00F0D0
:10295000EDF800F031F91C4804F046F901F022FFCF
:1029600001F070FF01F0F1FE01F057FE1749184821
:1029700001F0A9FC25E002F055FA642002F064F8A9
:102980004FF480710F48FEF71EF958B900BF4FF49D
:1029900080710C48FEF717F90028F8D008200D497F
:1029A00008600EE002210748FEF70DF948B900BFA4
:1029B00002210448FEF707F90028F9D00320054951
:1029C0000860D8E7000C01409C7A000876000020DF
:1029D00072000020B8000020704700BFFEE700BF73
:1029E000FEE700BFFEE700BFFEE770477047704795
:1029F000704710B540F225511148FFF73FFC80B1F8
:102A000040F225510E48FFF763FC0D48FFF7B6FB77
:102A1000C1B20C4802880088401C0A4B18800A4842
:102A2000815410BD10B501218807FFF752FA28B173
:102A300001F0E7FE01218807FFF75CFA10BD0000F6
:102A40000038014070000020FC00002000B587B075
:102A5000012144F20400FEF7DFFA4FF40070ADF8F4
:102A6000180018208DF81B0003208DF81A0006A905
:102A70002C48FEF715F84FF48060ADF818000420DC
:102A80008DF81B0006A92748FEF70AF825208DF8C7
:102A9000040003208DF805008DF8060001208DF854
:102AA000070001A8FDF755FC4FF4E130029000202B
:102AB000ADF80C00ADF80E00ADF81000ADF8140044
:102AC0000C20ADF8120002A91748FFF75AFA0122AC
:102AD00040F225511448FFF7ECFA01211248FFF7A4
:102AE000DCFA07B000BD70B504460D460E480088FC
:102AF000E1B20D48FFF73EFB00BF40210A48FFF757
:102B0000A7FB0028F9D0204670BD10B5044600BFD1
:102B100020210548FFF79CFB0028F9D00248FFF769
:102B20002DFB10BD000801400038014008B501210F
:102B3000E820FEF771FA01210802FEF760FA18207A
:102B40008DF8030003208DF802004CF20300ADF86D
:102B5000000069463048FDF7A3FF4FF4F060ADF880
:102B6000000069462D48FDF79BFF3020ADF80000BE
:102B700069462948FDF794FF10208DF803000320D3
:102B80008DF802008020ADF8000069462248FDF76C
:102B900087FF002280212048FEF733F818208DF8A7
:102BA000030003208DF802008020ADF80000694684
:102BB0001B48FDF775FF08BD00B597B003200190D5
:102BC00001200290082003900020049005900690B8
:102BD0004FF08050079000200890022009900820B4
:102BE0000A9000200B900C900E900F9010904FF4D4
:102BF00080501190002012901390149001A815900D
:102C0000169000200D9008A8FFF7C8FB01210020B6
:102C1000FFF72CFD17B000BD001401400018014063
:102C2000000C014008B54FF4E060FDF78DFB1C205F
:102C30008DF8000000208DF8010003208DF80200BF
:102C400001208DF803006846FDF783FB08BD0EB533
:102C500001210846FEF7EDF94FF47A70ADF8040053
:102C60004720ADF800000020ADF80600ADF80200E6
:102C700069464FF08040FEF707FB01218807FFF708
:102C800025F9012211469007FEF775FE01218807FC
:102C9000FEF756FE00210120FEF7CBF90EBD000025
:102CA0002DE9F04105460E4617460024A046FDF7E3
:102CB000DEFB3420FDF770FE012019490870194829
:102CC000FDF714FC1649087008460078042811D155
:102CD0000120087000BF0BE016F804801149294458
:102CE00001EB44004146FDF704FD0D490870641CEA
:102CF000BC42F1D301200A490870FDF7C5FBBDE8CD
:102D0000F08130B503460020064C234404E033F83C
:102D1000015B0D54401C5B1C9042F8DB30BD000091
:102D20002800002000F8070810B5044600BF042C56
:102D300002DD4FF0FF3010BD00BF210201F2014063
:102D4000102100F0D1FE00BF210201F2014000F08D
:102D5000EDFE0028F8D1210201F20240FF2100F02F
:102D6000C3FE0120A040F84909888143F64801804C
:102D70000120A040F54909888143F44801800020E2
:102D8000F34921F81400F349085500BF210201F26C
:102D9000034000F0CBFE0028F8D10120CBE7F8B5C6
:102DA00004460E4617461D4600BF042C02DD4FF0B8
:102DB000FF30F8BD00BF062E13D2DFE806F0120385
:102DC0000E100F11042269460F2000F00DFF00982D
:102DD00010B96FF00200ECE700BF00BF04E000BFD5
:102DE00002E06FF00400E4E700BF05F0040010B15A
:102DF0006FF00500DDE7BDB1012E02D0022E11D12A
:102E000006E005F0210010B96FF00500D1E70AE0F7
:102E100005F0200028B105F0800010B96FF0050022
:102E2000C7E700E000BF00BF2046FFF77DFF05F0C9
:102E3000F00242EA0601220202F5806000F054FE30
:102E40007FB9C54807880088401CC34908800846E8
:102E500000884FF6F071884203D14FF44040BE49DC
:102E600008803912220202F2044000F03DFEF9B25D
:102E7000220202F2054000F037FE210201F2014079
:102E8000012100F031FE00BF210201F2014000F0FB
:102E90004DFE0028F8D10120A040AB4909888143AC
:102EA000A948018005F00100A040A749098808430E
:102EB000A54908800120A040A44909888143A3486E
:102EC00001800020A24921F81400A249085500BF42
:102ED000210201F2034000F029FE0028F8D060B280
:102EE00067E710B5044600BF042C02DD4FF0FF3049
:102EF00010BD00BF00BF210201F5806000F016FE8A
:102F000000F00F00012802D06FF00400F0E700BFCE
:102F100000BF210201F2034000F008FE132802D096
:102F20006FF00200E4E700BF210201F2014002213C
:102F300000F0DAFD00BF210201F2014000F0F6FDD1
:102F40000028F8D105E02046FFF7EEFE6FF0030001
:102F5000CEE7210201F2034000F0E8FD1428F2D18F
:102F60000120C5E72DE9F04104460D46174600BF94
:102F7000042C03DD4FF0FF30BDE8F08100BF00BF3F
:102F8000210201F5806000F0D1FD00F00F00012862
:102F900002D06FF00400EFE700BF00BF210201F292
:102FA000034000F0C3FD132802D06FF00200E3E7F6
:102FB00000BF2E78687866F31F200646A87866F36F
:102FC0001F200646E87866F31F200646701C00B1F5
:102FD00016B96FF00B00CFE717B96FF00A00CBE717
:102FE000210201F20C400422294600F0C1FD3912F1
:102FF000220202F5826000F077FDF9B2220202F2AD
:10300000114000F071FD210201F20140042100F0A5
:103010006BFD00BF210201F2014000F087FD002896
:10302000F8D10120A04048490988084008B1002093
:10303000A2E719E0210201F2024000F077FD00F062
:10304000080040B1210201F20240082100F04CFDCD
:103050006FF00C0090E7210201F2034000F066FDE2
:1030600010B96FF0030087E7210201F2034000F07E
:103070005DFD1728DED101207EE710B5044600BFB4
:10308000042C02DD4FF0FF3010BD00BF00BF210255
:1030900001F5806000F04AFD00F00F00012802D029
:1030A0006FF00400F0E700BF210201F201400821A7
:1030B00000F01AFD00BF210201F2014000F036FDD0
:1030C0000028F8D10120A0402049098881431F48E9
:1030D00001800120A0401C490988084008B1002057
:1030E000D2E70DE0210201F2024000F01FFD00F0E6
:1030F000080028B12046FFF717FE6FF00C00C3E769
:10310000210201F2034000F011FD0028EAD1012064
:10311000BAE72DE9F0410446884615460026002707
:1031200000BF042C02DD701EBDE8F08100BF00BFAF
:10313000210201F5806000F0F9FC00F00F00012889
:103140000CD06FF00400EFE72C0000202E000020D0
:1031500030000020380000202A00002000BF00BFFF
:1031600015B96FF00D00DFE700BF210201F2034047
:1031700000F0DCFC0646172E04D01C2E02D06FF0A7
:103180000600D1E70120A040F8490988084008B3AB
:10319000210201F2024000F0C9FC064606F01000D0
:1031A00068B1210201F20240102100F09DFC0120D3
:1031B000A040EE4909888143EC4801800AE006F00E
:1031C000080028B12046FFF7AFFD6FF00C00ABE719
:1031D0000020A9E71B2000F0A9FC62000321914018
:1031E000084061000841012181404FF6FF7000EA6C
:1031F0008127BD4200DD3D4620E0204600F030FD45
:103200000746210201F2034000F090FC0646172E0B
:1032100007D01C2E05D02046FFF786FD6FF0060074
:1032200082E70120A040D2490988084018B1BD4278
:1032300001DD002078E7BD4200DC00E0DDE700BFF3
:103240002A464146204600F08BFD210201F2014052
:10325000202100F049FC00BF210201F2014000F0F2
:1032600065FC0028F8D10120A040C0490988084326
:10327000BE490880284657E72DE9F04704468846AE
:1032800016460027002500BF042C02DD681EBDE89D
:10329000F08700BF00BF210201F5806000F046FC0E
:1032A00000F00F00012802D06FF00400EFE700BF2C
:1032B00000BF16B96FF00D00E9E700BF1A2000F05B
:1032C00035FC620003219140084061000841012162
:1032D00081404FF6FF7000EA8125B54200DA2E46A4
:1032E00039E0204600F0E2FC0546210201F20340ED
:1032F00000F01CFC0746172F22D01C2F1AD105B155
:103300002AE0204600F0ACFC81461B2000F00EFCB9
:103310006200032191400840610008410121814081
:1033200088B2B9EB802F0BD12046FFF7FDFC6FF080
:103330000600ACE72046FFF7F7FC6FF00600A6E7B3
:103340000120A0408A490988084010B10DB9002029
:103350009DE705B100E0C4E700BFB54200DA2E46A4
:1033600032464146204600F06BFD210201F2014049
:10337000402100F0B9FB00BF210201F2014000F042
:10338000D5FB0028F8D1304681E72DE9F84F0446F7
:103390008A4615461E46DDF828900027B84600BF2D
:1033A000042C02DD781EBDE8F88F00BF210201F574
:1033B000806000F0BBFB00F00F00022804D003285F
:1033C00004D0042803D100E000BF00BF02E06FF08A
:1033D0000400E8E700BF00BF15B96FF00D00E2E799
:1033E00000BF307800907078009961F31F20009042
:1033F000B078009961F31F200090F078009961F394
:103400001F200090009810B96FF00B00CBE7B9F1C6
:10341000000F02D16FF00A00C5E7210201F203405C
:1034200000F084FB0746422F06D0222F04D0322F13
:1034300002D06FF00600B6E7210201F20C40042230
:10344000314600F095FB4FEA2921220202F5826005
:1034500000F04AFB09F0FF01220202F2114000F0E5
:1034600043FB1B2000F062FB6200032191400840F7
:1034700061000841012181404FF6FF7000EA812878
:10348000454500DD454619E0204600F0E9FB804651
:10349000210201F2034000F049FB10B96FF0030074
:1034A00081E70120A04032490988084018B145450C
:1034B00001DD002077E7454500DC00E0E4E700BFE0
:1034C0002A465146204600F04BFC042269460F2054
:1034D00000F08AFB009850B904226946052000F0EC
:1034E00083FB042223A1052000F042FB01E0002021
:1034F0000090210201F20140202100F0F5FA00BF06
:10350000210201F2014000F011FB0028F8D122E075
:10351000210201F2024000F009FB074607F010000B
:1035200030B1210201F20240102100F0DDFA13E077
:1035300007F0080078B1210201F20240082100F0F2
:10354000D3FA009820B104226946052000F010FB50
:103550006FF00C0027E7DBE700BF009820B10422E2
:103560006946052000F004FB28461CE72E000020D9
:103570002C00002000000000000000002DE9FC47A6
:1035800004468A4616461D46DDF82880002700BFFF
:10359000042C02DD781EBDE8FC8700BF210201F586
:1035A000806000F0C3FA814600F00F00022806D0C8
:1035B000032806D0042803D0052804D102E000BF68
:1035C00004E000BF02E06FF00400E4E700BF00BFCA
:1035D00016B96FF00D00DEE700BFF64830F81400B2
:1035E000D0B917E0204600F061FB0746210201F246
:1035F000034000F09BFA10B96FF00300CBE7012005
:10360000A040ED490988084010B10FB90020C2E779
:1036100007B100E0E6E700BF09F00700022804D088
:1036200003287CD004287BD150E0E24830F8140015
:10363000D8BB08226946204600F002FC210201F2B4
:103640000140402100F050FA00BF210201F2014088
:1036500000F06CFA0028F8D19DF8000028709DF861
:10366000010068709DF80200A8709DF80300E870E2
:103670009DF80400A8F800009DF8050098F80010D7
:1036800000EB0120A8F800009DF80600C94921F8C8
:1036900014009DF8070011F8141000EB0120C54933
:1036A00021F814008020C5490855C24830F814009C
:1036B000B04201DD374602E0BE4830F814703E46A5
:1036C0003A465146204600F0BBFB94E0B94830F83A
:1036D000140030BB02226946204600F0B1FB2102F3
:1036E00001F20140402100F0FFF900BF210201F288
:1036F000014000F01BFA0028F8D19DF80000AD4908
:1037000021F814009DF8010011F8141000EB0120BD
:10371000A84921F81400084630F8140002E01EE021
:1037200061E00CE040F2EA51884205DD2046FFF7F7
:10373000FBFA6FF47A702EE78020A04908559D4867
:1037400030F81400B04201DD374602E0994830F805
:1037500014703A465146204600F072FB4BE0954803
:1037600030F8140078BB06226946204600F068FB5A
:10377000210201F20140402100F0B6F900BF210210
:1037800001F2014000F0D2F90028F8D19DF80000C4
:1037900028709DF8010068709DF80200A8709DF8DF
:1037A0000300E8709DF80400824921F814009DF898
:1037B000050011F8141000EB01207E4921F81400D7
:1037C00080207E4908557B4830F81400B04201DD66
:1037D000374602E0774830F814703A4651462046A2
:1037E00000F02EFB07E03946204600F09EFB7148B2
:1037F00020F8147000BF00BF210201F201404021F7
:1038000000F072F900BF210201F2014000F08EF9D0
:103810000028F8D1674830F81400C01B654921F82A
:103820001400084630F8140030B16448005D40F0E0
:1038300001006249085502E00020604908553846F9
:10384000A9E62DE9F04104460E461546002700BFC3
:10385000042C02DD781EBDE8F08100BF062E59D28F
:10386000DFE806F0031B223344512F78012F07D1E4
:103870000120A0405049098808434F4908800BE0C7
:103880003FB90120A0404C49098881434A48018042
:1038900002E06FF00900DEE73FE047480088204182
:1038A00000F00100287038E01B2000F03FF96200B2
:1038B00003219140084061000841012181404FF6F9
:1038C000FF7000EA8120288027E01A2000F02EF9FE
:1038D00062000321914008406100084101218140BC
:1038E0004FF6FF7000EA8120288016E028781F2814
:1038F00002DD6FF00900AEE72978220202F20240F1
:1039000000F0F2F809E0210201F2024000F00EF9A5
:10391000287002E06FF009009DE700BF01209AE7E0
:1039200070B504460E46154600BF042C02DD4FF06C
:10393000FF3070BD00BF062E36D2DFE806F035033B
:103940000A111F272978220202F2164000F0CCF853
:103950002DE02978220202F2154000F0C5F826E099
:103960002A881112220202F2124000F0BDF82978D2
:10397000220202F2134000F0B7F818E0210201F22F
:103980000C400422294600F0F3F810E02A881112B6
:10399000220202F5826000F0A7F82978220202F2E2
:1039A000114000F0A1F802E06FF00900C1E700BF8C
:1039B0000120BEE7300000202C000020380000204D
:1039C0002DE9F04104460E46154600BF042C03DDE8
:1039D0004FF0FF30BDE8F08100BF0B2E79D2DFE859
:1039E00006F0060F161D2C3443484D546500210285
:1039F00001F5806000F09AF800F0F00028706BE0AC
:103A0000210201F2164000F091F8287064E02102D2
:103A100001F2154000F08AF828705DE0210201F201
:103A2000134000F083F80746210201F2124000F033
:103A30007DF807EB002028704EE0210201F20C40D7
:103A40000422294600F0D0F846E0210201F211409C
:103A500000F06CF80746210201F5826000F066F87C
:103A600007EB0020288037E0204600F0F9F8288096
:103A700032E0204600F01AF928802DE0210201F200
:103A8000034000F053F8287026E0210201F5806021
:103A900000F04CF8012804D1204600F007F92880F6
:103AA00003E00F4830F81400288015E000BF210221
:103AB00001F5806000F03AF800F00F00012803D013
:103AC0006FF0040086E704E000BF0648005D287040
:103AD00002E06FF001007DE700BF01207AE70000FF
:103AE000300000203800002070B504460D46FE4925
:103AF000C8688047FC4948698047FB48C4F30721F0
:103B0000026AFA489047E1B2F748026AF748401C57
:103B10009047F5482946026AF448801C9047F249CC
:103B200088698047F0490869804770BD70B50446D0
:103B3000ED49C8688047EC4948698047EA48C4F3C2
:103B40000721026AE9489047E1B2E748026AE7487C
:103B5000401C9047E448C169E448801C88470546FA
:103B6000E14988698047E04908698047284670BD77
:103B70002DE9F04104460E4617460025DA49C8688B
:103B80008047D949486980474FF0C040007840F0ED
:103B900002004FF0C0410870D348C4F30721026A05
:103BA000D2489047E1B2D048026AD048401C9047C2
:103BB00000BF07E0715DCC48026ACC48801C90478A
:103BC000681C85B2BD42F5DB4FF0C040007820F0A4
:103BD00002004FF0C0410870C34988698047C2495C
:103BE00008698047BDE8F0812DE9F04104460E46A2
:103BF00017460025BC49C8688047BB4948698047CB
:103C00004FF0C040007840F002004FF0C041087013
:103C1000B548C4F30721026AB4489047E1B2B248FC
:103C2000026AB248401C904700BF07E0AE48C16935
:103C3000AE48801C88477055681C85B2BD42F5DBD4
:103C40004FF0C040007820F002004FF0C0410870F3
:103C5000A54988698047A44908698047BDE8F08183
:103C600070B504460025002600BF210201F58460DE
:103C7000FFF75CFF0646210201F22140FFF756FFE5
:103C800000EB062086B26EB1210201F58460FFF7D9
:103C90004DFF0546210201F22140FFF747FF00EBEF
:103CA000052085B2B542E0D1284670BD70B5044606
:103CB0000025002600BF210201F22640FFF736FF53
:103CC0000646210201F22740FFF730FF00EB0620F5
:103CD00086B26EB1210201F22640FFF727FF0546AA
:103CE000210201F22740FFF721FF00EB052085B2FA
:103CF000B542E0D1284670BD70B505464FF4C046C8
:103D000000240FE01A20FFF711FF62000321914009
:103D10000840610008410121814088B206EB8026FD
:103D2000601C44B2AC42EDDB304670BD70B5054658
:103D30004FF4804600240FE01B20FFF7F7FE6200DF
:103D4000032191400840610008410121814088B26F
:103D500006EB8026601C44B2AC42EDDB304670BD01
:103D60002DE9F05F044689461546210201F22540FF
:103D7000FFF7DCFE8346210201F22440FFF7D6FE66
:103D80000BEB002086B21B20FFF7D0FE6200032160
:103D90009140084061000841012181400120C0EBB1
:103DA000812000EA06082046FFF7C0FF40441FFAC2
:103DB00080FA1B20FFF7BAFE620003219140084001
:103DC000610008410121814088B208EB0501B1EB97
:103DD000802F20DD1B20FFF7A9FE62000321914008
:103DE00008406100084101218140C8EB812087B271
:103DF0003A4649465046FFF7BBFEB944E81B87B236
:103E00002046FFF793FF1FFA80FA3A46494650468C
:103E1000FFF7AEFE04E02A4649465046FFF7A8FEEB
:103E2000701986B23112220202F22440FFF75CFEC2
:103E3000F1B2220202F22540FFF756FEBDE8F09FE4
:103E40002DE9F05F044689461546210201F229401A
:103E5000FFF76CFE8346210201F58560FFF766FEE1
:103E60000BEB002086B21A20FFF760FE62000321F0
:103E70009140084061000841012181400120C0EBD0
:103E8000812000EA06082046FFF736FF40441FFA6B
:103E900080FA1A20FFF74AFE620003219140084091
:103EA000610008410121814088B208EB0501B1EBB6
:103EB000802F25DD1A20FFF739FE62000321914093
:103EC00008406100084101218140C8EB812087B290
:103ED0003A4649465046FFF787FEB944E81B87B289
:103EE0002046FFF709FF03E03C00002001000060CE
:103EF0001FFA80FA3A4649465046FFF775FE04E03D
:103F00002A4649465046FFF76FFE701986B23112B5
:103F1000220202F58560FFF7E7FDF1B2220202F20C
:103F20002940FFF7E1FDBDE8F09F2DE9F04104468F
:103F30000E46210201F22940FFF7F8FD0746210253
:103F400001F58560FFF7F2FD07EB002085B2A819A7
:103F500085B22912220202F58560FFF7C5FDE9B29C
:103F6000220202F22940FFF7BFFDBDE8F08170B5E3
:103F700005460C4629463F20FFF7B6FD2112412099
:103F8000FFF7B2FDE1B24020FFF7AEFD0121442072
:103F9000FFF7AAFD00BF4420FFF7C8FD0028FAD1B3
:103FA00070BD70B5044621463F20FFF79DFD0221FC
:103FB0004420FFF799FD00BF4420FFF7B7FD00281C
:103FC000FAD14220FFF7B2FD05464320FFF7AEFDD0
:103FD00005EB002080B270BD704770477047704796
:103FE000014608787047017070470020704770479D
:103FF0007047704700B141B9AFF22302F94BDA6064
:10400000AFF22903F74A136102E0F64AD06011616A
:10401000704700B141B9AFF23B02F24B5A61AFF2C7
:104020004103F04A936102E0EE4A506191617047AA
:1040300000BFEC4A128802F48072002AF9D000B165
:1040400041B9AFF26302E74BDA61AFF26503E54ACB
:10405000136202E0E34AD0611162704700BFE14A97
:10406000128802F40072002AF9D000B141B9AFF20F
:104070008502DC4BDA61AFF28903DA4A136202E0AF
:10408000D84AD0611162704700BFD64A128802F444
:104090000072002AF9D000B139B9AFF2AB03D14AAE
:1040A0005362AFF2B103936202E0CE4A5062916272
:1040B000704710B53C20FFF739FD00F0010008B152
:1040C000012400E00024204610BD4FF0FF3070476F
:1040D00070B5054600240020FFF763FF0446012D5C
:1040E00002D144F4006401E024F40064214600207D
:1040F000FFF73DFF0020FFF754FF0446012D04D1D8
:1041000004F4006040B1002070BD04F40060B0F51C
:10411000006F01D00020F7E74FF0FF30F4E770B5F3
:10412000044600250020FFF73CFF054601202070D3
:1041300005F4805010B10120607011E00020607023
:1041400005F4807010B10120E07001E00020E07003
:1041500005F4005010B10120A07001E00020A07013
:1041600070BD70B505460020FFF71BFF0446687858
:10417000012802D144F4805411E024F48054E878FA
:10418000012802D144F4807401E024F48074A878FA
:10419000012802D144F4005401E024F400542146E3
:1041A0000020FFF7E4FE70BD10B50020FFF7F9FE18
:1041B000044644F4004421460020FFF7D8FE00BF27
:1041C0000020FFF7EEFE00F400400028F8D110BDFB
:1041D00070B50024002500261620FFF7A7FC044632
:1041E00004F00F0524F010042E4604EB062630469A
:1041F00070BD70B50446E5B2261225F0100506F034
:104200000F06354329461620FFF76EFC70BD70B5CA
:104210000024002500261520FFF788FC00F0E004AC
:1042200004F00F0524F010042E4604EB0626304659
:1042300070BD70B50446E5B2261245F0100506F0D3
:104240000F06354305F0E0011520FFF74DFC70BD6A
:1042500010B586B04FF0C040047844F001004FF034
:10426000C0410870062201A90920FFF7BDFC042205
:1042700005A90120FFF7B8FC042204A90520FFF7D7
:10428000B3FC042203A90F20FFF7AEFC80204FF0FF
:10429000C041087044F001000870062201A90920FD
:1042A000FFF766FC042205A90120FFF761FC042248
:1042B00004A90520FFF75CFC042203A90F20FFF7E7
:1042C00057FC06B010BD2DE9F04706460F464FF0EB
:1042D0000008FFF7BDFF002E30D000BF00240CE027
:1042E000305D40444FFA80F8B8F1080F03DD4FF01D
:1042F000FF30BDE8F087601C44B2042CF0DB0024E2
:104300001AE0002501E0681C45B2305D2841012813
:10431000F9D11B20FFF70AFC62000321914088437A
:10432000610005FA01F1084300F0FF0949461B202E
:10433000FFF7DAFB601C44B2042CE2DB87B34FF0DA
:10434000000800240BE0385D40444FFA80F8B8F1D3
:10435000080F02DD4FF0FF30CBE7601C44B2042CA5
:10436000F1DB00241AE0002501E0681C45B2385D4D
:1043700028410128F9D11A20FFF7D8FB6200032158
:1043800091408843610005FA01F1084300F0FF09FC
:1043900049461A20FFF7A8FB601C44B2042CE2DB5C
:1043A0000020A6E77CB506460C46002500200090BC
:1043B0000190102E60D2DFE806F0080B1B171F23B8
:1043C0005F5F27393C4044454954FFF741FF56E0C1
:1043D0001CB100940098001D0190DDE90001FFF779
:1043E00072FF7CBD3C0000202088FFF722FF46E0E2
:1043F000FFF70DFF208042E02088FFF7FAFE3EE045
:10440000FFF7E6FE20803AE071488078207070481F
:10441000C07860706E480079A0706D484079E07097
:104420006B48807920710020607128E0FFF7BCFEA6
:1044300025E02046FFF795FE21E02046FFF76FFEBE
:104440001DE01CE02078FFF743FECAE7FFF73DFEC2
:10445000C5B268B2401C10B94FF0FF30C1E72570FB
:104460000DE0FFF726FEC5B268B2401C10B94FF050
:10447000FF30B6E7257002E04FF0FF30B1E700BF34
:104480000020AEE770B504461920FFF74FFB2070FF
:104490001820FFF74BFB05461720FFF747FB05EBFE
:1044A0000020608070BD10B5044621781920FFF708
:1044B0001BFB608801121720FFF716FBA17818205C
:1044C000FFF712FB10BD4FF0C04000787047014667
:1044D000002221F0380008B1501E70474FF0C04054
:1044E00002780A4302700020F7E710B5044606225E
:1044F00021460920FFF778FB042204F10E01012078
:10450000FFF772FB042204F10A010520FFF76CFBA0
:104510000422A11D0F20FFF767FB2E480078A0742E
:104520002C484178E17481782175C17861752A48F9
:104530000078A07510BD10B504460622214609205A
:10454000FFF716FB042204F10E010120FFF710FB18
:10455000042204F10A010520FFF70AFB0422A11D31
:104560000F20FFF705FBA07C1A490870E07C48701B
:10457000207D8870607DC870A07D1749087010BDCF
:1045800070B505460C46062D1CD2DFE805F0030782
:104590000B0F13172046FFF7CEFF16E02046FFF75C
:1045A000A4FF12E02078FFF792FF70BDFFF78BFFAA
:1045B00020700AE02046FFF776FF06E02046FFF76E
:1045C00061FF02E04FF0FF30EFE700BF0020ECE7B3
:1045D0003C000020680000206C00002008B501218C
:1045E0002020FCF719FD4FF48070ADF8000010207A
:1045F0008DF8030003208DF802006946A448FCF7FB
:104600004FFA4FF40070ADF8000048208DF8030019
:1046100069469F48FCF744FA08BD1CB59D489E4971
:104620000A680260898881809C490968C0F8061080
:104630009B490968C0F80A109A490968C0F80E1029
:1046400099490968C0F812109848007820B10128EB
:1046500006D0022838D127E095A002F0C5FA33E051
:104660009B480078012818D19AA002F0BDFA894829
:104670009C49D1F80610C0F806109A49D1F80A10E2
:10468000C0F80A109749D1F80E10C0F80E109549DD
:10469000D1F81210C0F8121005E093A002F0A4FAAD
:1046A00099A002F0A1FA0FE0012201A90020FEF773
:1046B00028FB9DF80400FF2805D00C227549891DB0
:1046C0000020FEF71EFB00BF00BF042271490A3123
:1046D0000520FFF74DFA04226E490E310120FFF745
:1046E00047FA04226B49891D0F20FFF741FA042283
:1046F0006A490F20FFF778FA6848C0780090674849
:1047000083784278017888A002F06EFA0422644926
:104710000520FFF769FA6248C07800906048837806
:104720004278017889A002F05FFA04225D490120F5
:10473000FFF75AFA5B48C07800905A48837842786D
:1047400001788BA002F050FA1CBD0EB50120514932
:10475000887600214F48C1764F490A6802608988EF
:104760008180062201460920FFF702FA5D484A4986
:104770000A68026089888180062247490920FFF77C
:1047800033FA4548407944490979434AD278CDE91A
:104790000021029040488378427801787DA002F0A1
:1047A00023FA0EBD10B54FF480713948FCF727FA93
:1047B0004FF4FA7000F048F94FF480713448FCF778
:1047C0001CFA40F2DC5000F03FF910BD70B57EA03D
:1047D00002F00AFA002044682546A84770BD10B5CB
:1047E000FEF735FAFEF71EFA01210846FCF721FC18
:1047F00010BD10B5FFF7F3FF10BD10B5FFF7EFFFC9
:1048000010BD76480068401C74490860084600687E
:10481000B0F57A7F10D30020086071480068401C12
:104820006F4908606F480068401C6E4908606E4818
:104830000078401C6C490870704710B53C20FFF7A9
:1048400075F910BD10B50024FFF7F7FF00F0010463
:10485000ECB966A002F0C8F9002400BF2046621C33
:10486000D4B2FEF761FA042CF8DB00240AE0FFF76B
:10487000E4FF00F0010464A002F0B6F94FF4FA700E
:1048800000F0E2F8002CF2D060A002F0ADF910BD0B
:1048900000140140E00000207A0000208000002089
:1048A00084000020880000208C0000209800002058
:1048B00020CAB9D3C3B6A8D2E5B5C44950D0C5CF34
:1048C000A2C5E4D6C35735313030533A0D0A000043
:1048D000990000202049502066726F6D20444843A3
:1048E000500D0A002C0500202044484350D7D3B374
:1048F000CCD0F2CEB4D4CBD0D02CBBF2D5DFB2BB6F
:10490000B3C9B9A60D0A000020CAB9D3C3B6A8D24C
:10491000E5B5C44950D0C5CFA2C5E4D6C35735319B
:104920003030530D0A00000020573531303053200D
:104930004950B5D8D6B72020203A2025642E2564CA
:104940002E25642E25640D0A000000002057353105
:1049500030305320D7D3CDF8D1DAC2EB203A20251E
:10496000642E25642E25642E25640D0A00000000A7
:104970002057353130305320CDF8B9D820202020B1
:10498000203A2025642E25642E25642E25640D0AE8
:104990000000000020573531303053204D4143B5E1
:1049A000D8D6B720203A20253032782E25303278DC
:1049B0002E253032782E253032782E253032782E42
:1049C000253032780D0A000020CFB5CDB3D6D8C639
:1049D000F4D6D0A1ADA1AD0D0A0000009C000020CE
:1049E000A0000020A8000020A4000020200D0A2024
:1049F000C7EBBCECB2E9CDF8CFDFCAC7B7F1C1ACA9
:104A0000BDD33F0D0A000000202E0000200D0A003B
:104A10004FF0E021096921F004014FF0E02211611B
:104A2000C21700EB5272C2F3C702F14B1A7019465B
:104A3000097801EB4102C2EBC1114FF6FF7202EAA5
:104A4000C101EC4A118070470146EA4A12884A4384
:104A50004FF0E0235A6100229A6101221A6100BFDF
:104A60004FF0E022106900F001021AB100F4803228
:104A7000002AF5D000224FF0E0231A619A617047B6
:104A800010B5044604E04FF47A70FFF7DDFF641EB2
:104A9000002CF8D110BD0146D54A12784A434FF098
:104AA000E0235A6100229A6101221A6100BF4FF08F
:104AB000E022106900F001021AB100F48032002AED
:104AC000F5D000224FF0E0231A619A617047014649
:104AD000302905DB392903DCA1F13000C0B2704771
:104AE000612905DB662903DCA1F15700C0B2F6E7B6
:104AF000412905DB462903DCA1F13700C0B2EEE70E
:104B00000846ECE730B502460B46002405E012F8F3
:104B1000010BFFF7DCFF04FB030410780028F6D13B
:104B2000A0B230BD30B502460B46002405E012F8B5
:104B3000010BFFF7CCFF04FB030410780028F6D12B
:104B4000204630BD2DE9F04104460D461646701E44
:104B5000C7B220223146284601F070FC00BF0A206F
:104B600094FBF0F100FB11403030C2B23846791EA0
:104B7000CFB22A540A2094FBF0F080B2041EEEDC7F
:104B8000BDE8F0812DE9F04104460F4690462646E7
:104B90000CB1207810B90020BDE8F0810BE030782E
:104BA000FFF795FF0546002D03DBBD4201DA761CB9
:104BB00001E00020F0E730780028F0D1B9B22046BB
:104BC000FFF7A0FFC8F800000120E5E710B50B468D
:104BD000002104E0445C9C4200D14254491C445CE6
:104BE000002CF7D110BD014600200A06100C40EA47
:104BF00011207047014600200806C1F3072240EA51
:104C00000240C1F3074240EA022040EA11607047C7
:104C10002DE9F04781460E4617461D463146484667
:104C200001F01EFC0446304601F042FC04443946C3
:104C3000204601F015FC8246AAEB04001FFA80F81A
:104C400042462146284601F01DFC002005F80800D8
:104C5000BDE8F0872DE9F04188B006460F463146A1
:104C6000684601F040FC6C4600251BE062A120462E
:104C700001F042FC04462078302809D16078782879
:104C800006D11021A01CFFF73DFF00F0FF0805E052
:104C90000A212046FFF736FF00F0FF0807F80580DD
:104CA00000246D1C042DE1DB08B0BDE8F0811CB5CB
:104CB00004462021514801F0C8FBE0B2C4F30721AB
:104CC000220EC4F30743CDE900104DA14B4801F07B
:104CD0009BFF4A481CBD1CB5044610214B4801F0FF
:104CE000B4FBE0B2C4F30721220EC4F30743CDE9BD
:104CF000001047A1454801F067FF44481CBDF0B5CE
:104D00008FB006460F4601AC314601A801F0EBFB1F
:104D100000252AE038A1204601F0EEFB044614B934
:104D200000200FB0F0BD207830280AD160787828B4
:104D300007D10EAA1021A01CFFF724FF48B90020BC
:104D4000EFE70EAA0A212046FFF71CFF08B9002052
:104D5000E7E70E9878550E98002802DB0E98FF289A
:104D600001DD0020DDE700246D1C042DD2DB0120D5
:104D7000D7E700B503461846FFF735FF00BD00B57D
:104D800003461846FFF736FF00BD10B5044620461F
:104D9000FFF7EFFF10BD10B504462046FFF7EFFF09
:104DA00010BDF0B502460D46C5F34F0600240021A4
:104DB0000EE012F811304FF6FF7707EA03230127C0
:104DC00007EB4107D75D1F44BBB21C444F1CB9B26F
:104DD000B142EEDB05F001071FB112F8113004EB10
:104DE0000324A0B200EB1447FF43B8B2F0BD0000AB
:104DF000AC000020AE0000202E000000FC040020CB
:104E000025642E25642E25642E2564001C050020B3
:104E1000253033642E253033642E253033642E251F
:104E20003033640010B5002440F20350FEF77EFEDC
:104E300030B1132810D0172815D01C280BD19DE0B5
:104E4000514802880088401C4F4B188020230121C4
:104E50000846FDF7A4FF95E04C4802884C49012024
:104E6000FEF780F88EE040F20250FEF75FFE00F0A1
:104E7000010020B1012140F20250FEF735FE012071
:104E8000FEF714FF0446002C0EDD224641490120A6
:104E9000FEF7F2F93F48404908600846006818B13B
:104EA0000846006800F09CF93C480068082810D0CB
:104EB00004DC012807D003285ED112E00A2846D07E
:104EC0000C2859D14BE000F079F80C2033490860E8
:104ED00052E00121324800F009F90C202F49086006
:104EE0004AE02F4908682FA100F04FF94FF496705F
:104EF000FFF7AAFD0120FEF7D9FE04462246254908
:104F00000120FEF7B9F923482349086008460068E4
:104F100018B10846006800F063F96420FFF794FDBB
:104F20000120FEF7C3FE044622461A490120FEF77F
:104F3000A3F91848184908600846006818B10846DF
:104F4000006800F04DF90C201449086014E00121BC
:104F5000134800F0A0F80C20104908600CE0154838
:104F60000068782807D9022213490120FEF7D1F8FA
:104F700000201049086000BF00BF03E00120FDF7DA
:104F8000D3FE00BF00BF10BD90000020B400002081
:104F9000B000002042090020C4000020B80000201A
:104FA000BC0000207777772E776973696F652E6371
:104FB0006F6D0000A8000020C000002030B58BB04D
:104FC00000200790089009900A90DCA3DCA2E1A1E0
:104FD000E4A001F009FE07A8002102910391CDE9A8
:104FE000041000914FF48073D4A20191D4A1D9A0F0
:104FF00000F085FC002849D1089882B20120079969
:10500000FEF787F86420FFF71FFD08E00120FEF798
:105010004DFE04462246E0490120FEF72DF9DE4808
:1050200000782028F2D1DC4D002D2BD0284600F04E
:1050300031FC022826D1284600F0C4FD06281CD2E7
:10504000DFE800F003070B0F1317D4A001F0CCFD2D
:1050500017E0D7A001F0C8FD13E0DCA001F0C4FD0B
:105060000FE0E3A001F0C0FD0BE0E9A001F0BCFD02
:1050700007E0F0A001F0B8FD03E0F9A001F0B4FDF5
:1050800000BF00BF07A800F0BDFB02E0FBA001F0DD
:10509000ABFD0BB030BD7FB505460E46002000903D
:1050A0000190029003906B46324629460A2000F098
:1050B00082FFD0B9019882B201200099FEF729F849
:1050C0006420FFF7C1FC0120FEF7F0FD04462246F4
:1050D000B1490120FEF7D0F8AF4800780B21B1EBC1
:1050E000201F02D1EEA001F07FFD7FBDF0B585B09D
:1050F00004460D4600260020019002900390049083
:1051000006E054F82610EAA001F06EFD701CC6B24D
:10511000AE42F6DB01A82B46224600210090142067
:1051200000F0B1FE40B9029882B201200199FDF76A
:10513000F0FF01A800F066FB6420FFF785FC01206A
:10514000FEF7B4FD07463A4693490120FEF794F86E
:105150009148007930B1012808D002280AD080286F
:1051600010D10BE0D8A001F03FFD0BE0DCA001F076
:105170003BFD07E0E0A001F037FD03E0E4A001F013
:1051800033FD00BF00BF05B0F0BD70B588B0054667
:105190000C46002004900590069007902246294670
:1051A000DEA001F021FD204601F082F9064604A8A8
:1051B0000121002200923346CDE9012103902246CD
:1051C00029460A2000F00DFD40B9059882B2012061
:1051D0000499FDF79EFF04A800F014FB08B070BD11
:1051E0002DE9F0438BB00746002007900890099006
:1051F0000A90069005900026049000250024804621
:10520000384600F047FB0646F01E0D2870D2DFE856
:1052100000F026707894936F926F916F6F6F070014
:1052200006AA05A9384600F0A7FD0546B5B9C3A0F2
:10523000DDE9051201F0D8FC07AADDE9050100F05F
:10524000E0FD58B9C3A001F0CFFC089882B201205C
:105250000799FDF75EFF07A800F0D4FA16E2C348ED
:1052600004AB06AA05A90090384600F023FF0546C6
:10527000002D3CD1BEA0DDE9051201F0B5FC069879
:1052800001F016F981464A46C048069901F0C4F873
:105290009DF81000012802D0022826D112E007A9AB
:1052A000B248008800F0D1FF58B9B9A001F09CFCC9
:1052B000089882B201200799FDF72BFF07A800F09C
:1052C000A1FA13E007A9A948008800F0F1FF58B936
:1052D000B5A001F089FC089882B201200799FDF77A
:1052E00018FF07A800F08EFA00E000BF00BFCDE174
:1052F000C9E1384600F0CDFF10B9B1A001F074FC4F
:10530000C4E1384600F0F8FF98B9B5A001F06CFC94
:1053100007A90A2000F0FFFF58B9B7A001F064FC0C
:10532000089882B201200799FDF7F3FE07A800F064
:1053300069FAABE19BE18EE185E169E17177650096
:105340003233683077747A6B6D6D746939383271C5
:1053500000000000373332317068342F7735353034
:1053600030000000B0D9B6C8CCECB9A45F44657673
:105370004C696E6B0D0A50524F49443A2025732CEC
:1053800009415549463A2025732C0944455649445C
:105390003A25730D0A000000421100205469707311
:1053A0003A09C1ACBDD3B3C9B9A60D0A00000000CB
:1053B0005741524E3A09C1ACBDD3CAA7B0DCA3BA1B
:1053C000D0ADD2E9B4EDCEF30D0A00005741524EF4
:1053D0003A09C1ACBDD3CAA7B0DCA3BAB7C7B7A856
:1053E000B5C4636C69656E7469640D0A00000000E1
:1053F0005741524E3A09C1ACBDD3CAA7B0DCA3BADB
:10540000B7FECEF1C6F7CAA7B0DC0D0A0000000057
:105410005741524E3A09C1ACBDD3CAA7B0DCA3BABA
:10542000D3C3BBA7C3FBBBF2C3DCC2EBB4EDCEF36B
:105430000D0A00005741524E3A09C1ACBDD3CAA76C
:10544000B0DCA3BAB7C7B7A8C1B4BDD328B1C8C828
:10545000E7746F6B656EB7C7B7A8290D0A00000027
:105460004552523A09C1ACBDD3CAA7B0DCA3BACEEB
:10547000B4D6AAB4EDCEF30D0A0000005741524E47
:105480003A094D5154545F5061636B6574436F6EBC
:105490006E656374204661696C65640D0A000000E6
:1054A000B3C9B9A6C8A1CFFBB6A9D4C40D0A0000E0
:1054B00053756273637269626520546F7069633AF1
:1054C0002025730D0A000000B6A9D4C4C8B7C8CF00
:1054D000A3AC20516F53B5C8BCB6300D0A00000014
:1054E000B6A9D4C4C8B7C8CFA3AC20516F53B5C8B0
:1054F000BCB6310D0A000000B6A9D4C4C8B7C8CFE5
:10550000A3AC20516F53B5C8BCB632200D0A0000C1
:10551000B6A9D4C4CAA7B0DC200D0A005075626CCD
:1055200069736820546F7069633A2025732C204D8D
:1055300073673A2025730D0A00000000636D6469EB
:10554000643A2025732C207265713A2025730D0A68
:1055500000000000546970733A0953656E6420437B
:105560006D64526573700D0A00000000C8000020D1
:10557000746F7069633A2025730D0A7061796C6FDE
:1055800061643A2025730D0A00000000C21100205A
:10559000546970733A0953656E64205075626C6982
:1055A000736841636B0D0A00546970733A0953655F
:1055B0006E64205075626C6973685265630D0A00F1
:1055C000546970733A094D515454205075626C6996
:1055D00073682053656E64204F4B0D0A0000000075
:1055E000546970733A09526576205075626C69731C
:1055F000685265630D0A0000546970733A09536577
:105600006E64205075626C69736852656C0D0A0097
:1056100035480188384600F0A2FE98B933A001F061
:10562000E3FA07A90A2000F0ACFE58B935A001F052
:10563000DBFA089882B201200799FDF76AFD07A8F6
:1056400000F0E0F822E0384600F0BFFE10B934A0C8
:1056500001F0CAFA1AE0384600F093FC18B936A0F7
:1056600001F0C2FA02E03BA001F0BEFA0EE03846BB
:1056700000F017FD18B93EA001F0B6FA02E043A011
:1056800001F0B2FA02E04FF0FF3500BF00BF681C26
:1056900010B90BB0BDE8F0837D21069800F0FEFE46
:1056A0000446A4B1681C90B1641C06E014F8012BF8
:1056B000404608F1010801A90A542078302802DB8D
:1056C00020783928F2DD01A800F038FF80460F2E3F
:1056D00001D0032E05D1059802F03EF9069802F09C
:1056E0003BF900BFD5E70000C80000205469707383
:1056F0003A09526576205075626C69736852656C20
:105700000D0A0000546970733A0953656E642050A5
:1057100075626C697368436F6D700D0A000000005C
:10572000546970733A09526576205075626C6973DA
:1057300068436F6D700D0A00546970733A094D51DA
:10574000545420537562736372696265204F4B0D28
:105750000A000000546970733A094D5154542053A3
:105760007562736372696265204572720D0A00008A
:10577000546970733A094D51545420556E537562F3
:10578000736372696265204F4B0D0A005469707330
:105790003A094D51545420556E53756273637269C2
:1057A0006265204572720D0A0000000070B5044663
:1057B0000E460025206898B901202073304602F07B
:1057C000F3F820602068E0B100206060A66003E08C
:1057D0000020216848556D1CA068A842F8D810E048
:1057E0000220207303E00020216848556D1CA0684A
:1057F000A842F8D800206060A068B04201D2002022
:10580000206070BD10B50446207B012802D12068BD
:1058100002F0A2F8002020606060A060207310BD3C
:105820000246002301230DE002F07F000870D20938
:105830002AB1087840F080000870491C01E0184641
:1058400070475B1C042BEFDD4FF0FF30F8E7F0B53D
:1058500004460D462646012300201060002114E076
:10586000775C07F07F07106807FB03001060705C2F
:1058700000F0800008B9481CF0BDDB01B3F5001F43
:1058800002D36FF00100F7E7491CA942E8DB4FF0B3
:10589000FF30F1E7F8B50446FF2720780511012D08
:1058A00001DB0E2D01DD3846F8BD032D24D100208B
:1058B00000906A460421601CFFF7C9FF2044461C83
:1058C0000098022803D3207800F0010008B1FF20DF
:1058D000EAE77078317840EA0120801C009988421C
:1058E00001D9FF20E0E7FEA1B01C00F0B9FD08B12E
:1058F0000F2700E0032700E02F463846D4E72DE9C4
:10590000FF4F83B082468B469146159C00250020B0
:1059100002900F270190484600F0CAFD8046B9F179
:10592000000F03D1012007B0BDE8F08F08F102009D
:10593000384487B2109808B145F00205129878B142
:1059400045F00405129800F0B3FDC0B20290139820
:1059500000F0AEFD01460298001D0844384487B2AD
:10596000119820B1012804D0022808D104E000BF1A
:1059700007E045F00C0504E045F0140501E00220C5
:10598000D1E700BF149808B145F02405BAF1000F23
:1059900002D0BBF1000F01D10320C4E745F0C005E0
:1059A000504600F085FD0646584600F081FD304423
:1059B000001D384487B239462046FFF7F7FE2068BD
:1059C00008B90420AFE73946206800F03EFD1021F9
:1059D0006268501C606020688154D4E90023D118AB
:1059E000781FFFF71DFF01900198002804DA204678
:1059F000FFF708FF052096E761680198084460609A
:105A000000216268501C6060206881540421626833
:105A1000501C6060206881544D216268501C606099
:105A20002068815451216268501C60602068815454
:105A300054216268501C6060206881546268501C68
:105A400060602068815404216268501C6060206896
:105A500081546168481C6060206845540698010ABA
:105A60006268501C6060206881540698C1B2626808
:105A7000501C606020688154C8F307216268501C84
:105A80006060206881546268501C6060206800F883
:105A90000280D4E9001288184246494600F00FFD02
:105AA00060684044606005F00400B8B300261398B5
:105AB00008B98DA01390129800F0FAFC86B2310A52
:105AC0006268501C6060206881546268501C60608D
:105AD00020688654D4E9001288183246129900F0E2
